:100000000C9434000C9449000C9449000C94490061
:100010000C9449000C9449000C9449000C9449003C
:100020000C9449000C9449000C9449000C9449002C
:100030000C9449000C9449000C9449000C9449001C
:100040000C9449000C9449000C9449000C9449000C
:100050000C9449000C9449000C9449000C944900FC
:100060000C9449000C94490011241FBECFEFD4E03A
:10007000DEBFCDBF11E0A0E0B1E0E6E9F2E002C0F2
:1000800005900D92A03EB107D9F70E94DA000C94BA
:1000900049010C9400009091C00095FFFCCF809323
:1000A000C60008958091C00087FFFCCF8091C600F4
:1000B00008951F93CF93DF93EC0110E0FE01E10F51
:1000C000F11D8081811104C0DF91CF911F910895AE
:1000D0000E944B001F5FF2CFCF93C82F64E60E94AF
:1000E0003D01805D0E944B002AE08C2F622F0E9410
:1000F0003D01C92F0E943D0180E3890F0E944B0002
:1001000080E38C0FCF910C944B00282F30E0F90145
:1001100096E0F595E7959A95E1F7E170A90165E01C
:10012000559547956A95E1F7742F7170A901F4E030
:1001300055954795FA95E1F7642F6170A901A3E001
:1001400055954795AA95E1F7942F9170A90155957A
:100150004795559547954170359527952170382FCE
:10016000317087FF17C05F9AEE23B1F05E9A772354
:10017000A9F05D9A6623A1F02F9A992399F02E9AFF
:10018000442391F05C9A222389F05B9A332381F017
:100190005A9A08955F98E8CF5E98E9CF5D98EACFC4
:1001A0002F98EBCF2E98ECCF5C98EDCF5B98EECFED
:1001B0005A9808951092C5008CE08093C4008091F5
:1001C000C00082608093C00088E18093C10086E017
:1001D0008093C2008091C200877F8093C200579AAB
:1001E000569A559A279A269A549A539A529A11E0F7
:1001F00080E091E00E9459000E945200D82F80EDCB
:100200008D0F8A3028F484E291E00E945900F0CFEB
:100210008D2F0E9485008CE491E00E9459000E947D
:100220005200C82F80ED8C0F8A3028F084E291E0D4
:100230000E945900F0CF8C2F0E94850087E791E043
:100240000E9459008D2F0E944B0083E991E00E948B
:1002500059008C2F0E944B008DEA91E00E945900BA
:10026000812F0E946C008FEB91E00E9459008AED73
:1002700091E00E9459001F5FBBCF991B79E004C039
:10028000991F961708F0961B881F7A95C9F78095D5
:060290000895F894FFCF71
:100296000A200D20506C6561736520696E70757457
:1002A6002061206368617261637465722076616C97
:1002B60075653A000A200D2057726F6E6720496EE9
:1002C60070757420506C6561736520656E74657217
:1002D60020616761696E21200A200D000A200D2029
:1002E600506C6561736520696E7075742061204479
:1002F6006563696D616C2076616C756528496E74FD
:1003060065676572293A000A200D204368617261AB
:100316006374657220456E746572656420776173D7
:100326003A20000A200D20496E74656765722045E3
:100336006E7465726564207761733A20000A200D39
:10034600204C6F6F70204E756D6265723A20000A00
:10035600200D202A2A2A2A2A2A2A2A2A2A2A2A2A28
:100366002A2A2A2A2A2A2A2A2A000A200A200000B9
:00000001FF
