:100000000C9434000C948D000C9451000C9451000D
:100010000C9451000C9451000C9451000C9451001C
:100020000C9451000C9451000C9451000C9451000C
:100030000C9451000C9451000C9451000C945100FC
:100040000C9451000C9451000C9451000C945100EC
:100050000C9451000C9451000C9451000C945100DC
:100060000C9451000C94510011241FBECFEFD4E02A
:10007000DEBFCDBF12E0A0E0B1E0E8EDFAE002C0E3
:1000800005900D92A038B107D9F722E0A0E8B2E0C0
:1000900001C01D92A938B207E1F70E94E1010C945A
:1000A0006A050C9400009091C00095FFFCCF8093EE
:1000B000C60008958091C00087FFFCCF8091C600E4
:1000C00008951F93CF93DF93EC0110E0FE01E10F41
:1000D000F11D8081811104C0DF91CF911F9108959E
:1000E0000E9453001F5FF2CFCF93C82F64E60E9497
:1000F0007D02805D0E9453002AE08C2F622F0E94B7
:100100007D02C92F0E947D0280E3890F0E94530067
:1001100080E38C0FCF910C9453001F920F920FB677
:100120000F9211240F931F932F933F934F935F933D
:100130006F937F938F939F93AF93BF93EF93FF93AF
:10014000CF93DF93CDB7DEB76097DEBFCDBF109200
:100150008702109286024A994DC083EE97E5019777
:10016000F1F700C000004A9945C080E091E00E948C
:10017000610080918802803328F0809188028A3360
:1001800008F453C082E491E00E94610080918802EB
:100190000E94530086E691E00E94610088E691E0AB
:1001A0000E94610080E791E00E94610080918402DA
:1001B000909185020E9474008CE20E94530080910D
:1001C0008202909183020E9474008CE20E9453008C
:1001D00080918002909181020E94740080E791E0FA
:1001E0000E94610082E791E00E94610082EB91E051
:1001F0000E94610060960FB6F894DEBF0FBECDBFBF
:10020000DF91CF91FF91EF91BF91AF919F918F912E
:100210007F916F915F914F913F912F911F910F911E
:100220000F900FBE0F901F90189582E591E00E94ED
:1002300061008091880290E090938702809386020B
:100240008091860290918702C09790938702809355
:10025000860280918602909187029F938F9383E616
:1002600091E09F938F938E010F5F1F4F1F930F930A
:100270000E949402C8010E9461000F900F900F909D
:100280000F900F900F9086CFCF92DF92EF92FF9258
:100290000F931F93CF93DF93CDB7DEB7C459D10926
:1002A0000FB6F894DEBF0FBECDBF7C0181E3EDED4C
:1002B000F1E0DE01AC59BF4F01900D928A95E1F754
:1002C000B701CE018C599F4F0E948902CE018C59F3
:1002D0009F4F0E9461000E945A008093880290ED17
:1002E000980F933028F085EB91E00E946100EECFEB
:1002F000C82ED12C82E3EEE0F2E0DE0111960190EF
:100300000D928A95E1F7B701CE0101960E9489020C
:10031000CE0101960E9461000E945A0080938802DB
:1003200090ED980F963028F085EB91E00E946100E7
:10033000EFCF082F10E081E3E0E4F2E0DE01D39696
:1003400001900D928A95E1F7B701CE01C3960E9404
:100350008902CE01C3960E9461000E945A008093D8
:10036000880290ED980F963028F085EB91E00E947E
:100370006100EFCF90E3C91AD10894E69C9D9001EB
:100380009D9D300D1124005311099AE0909FA0010A
:10039000919F500D1124240F351F8053990B820F0C
:1003A000931FCC56DF4F0FB6F894DEBF0FBECDBF04
:1003B000DF91CF911F910F91FF90EF90DF90CF9041
:1003C00008951092C5008CE08093C4008091C00015
:1003D00082608093C00088E18093C10086E08093B2
:1003E000C2008091C200877F8093C20084B5816083
:1003F00084BD84B5826084BD85B5877F85BD85B5A4
:100400008E7F85BD85B5826085BD85B58B7F85BDB9
:1004100084B58F7B84BD84B5806884BD8091800065
:100420008D7F809380008091800081608093800028
:1004300080918100886080938100809181008F7E0F
:1004400080938100809181008E7F809381008091D4
:100450008100826080938100809181008B7F8093F6
:100460008100809180008062809380008091800074
:100470008F7E8093800080918000806880938000D0
:10048000809180008F7B80938000E89A8091690042
:10049000826080936900569A229A219A52985A9AB9
:1004A000789481E792E00E944401909389008093C0
:1004B00088008091880090918900909385028093B4
:1004C000840285E792E00E94440190938B00809320
:1004D0008A0080918A0090918B0090938302809390
:1004E00082028BE792E00E94440187BD87B590E0CD
:1004F0009093810280938002D4CF991B79E004C04D
:10050000991F961708F0961B881F7A95C9F7809552
:100510000895FB01DC010D900020E9F7119701908F
:100520000D920020E1F70895AEE0B0E0EAE9F2E0D4
:100530000C9441050D891E8986E08C831A830983FA
:100540008FEF9FE79E838D83AE01475E5F4F6F897C
:10055000788DCE0101960E94B7022F813885020F57
:10056000131FF80110822E96E4E00C945D05AFE0B5
:10057000B0E0EDEBF2E00C9433057C013B018A0125
:10058000DC0117961C921E92169713968C9181FF90
:10059000C3C19AE0292EFE0131964F01D70113966F
:1005A0009C91F30193FD859193FF81913F018823F5
:1005B00009F448C1853239F493FD859193FF819107
:1005C0003F01853229F4B70190E00E94A504E6CFEF
:1005D000B12C412C512CBFE1B51538F08B3209F10B
:1005E00088F4803201F1833221F157FC3AC020EDCA
:1005F000280F2A3040F556FE1FC0B29C200D112452
:10060000B22E06C08D3291F0803379F7689450F89D
:10061000F30193FD859193FF81913F018111DBCF20
:1006200020C0689451F8689452F8F2CF689453F857
:10063000EFCF689454F8ECCF429C200D1124422E49
:10064000689455F8E5CF8E3229F456FCFBC06894C7
:1006500056F8DECF8C3619F4689457F8D9CF88361F
:10066000B9F2982F9F7D95549330C0F08336A1F155
:100670008337C1F1833509F05BC0D801CD90DD909F
:100680008D016B2D70E056FC02C06FEF7FEFC6014D
:100690000E948F045C01689457F80AC00C5F1F4FDA
:1006A000EFE3E983AA24A394B12C6401E89457F8FA
:1006B00053FC04C04A141B0409F018F5342CA1148F
:1006C000B10431F5332009F469CFB70180E290E03D
:1006D0000E94A5043A94F6CFD8018C9189830E5FCD
:1006E0001F4FE0CFF801C190D1908F016B2D70E0CA
:1006F00056FC02C06FEF7FEFC6010E949A045C01B6
:10070000D5CFB70180E290E00E94A5044A94D2CFF1
:10071000F60157FC859157FE81916F01B70190E07A
:100720000E94A50431103A94B1E0AB1AB108C7CFCA
:10073000843619F0893609F074C0F80157FE6AC092
:1007400061917191819191918F01E52DEF76DE2E6E
:1007500097FF09C090958095709561957F4F8F4F59
:100760009F4F6894D7F82AE030E0A4010E94D50496
:10077000C82EC818AC2C5D2CD6FE0CC0E89450F8DE
:10078000CB1440F4D4FE05C0D2FC03C05D2D5E7EC8
:10079000552EAB2C54FE98C0FE01EC0DF11D80814E
:1007A000803309F08AC0652D697E562E752D7870CC
:1007B000372E53FC98C050FE92C0BC2CA41418F4E1
:1007C0004C0CB42CBA1854FE94C0B70180E390E0EE
:1007D0000E94A50452FE09C088E790E051FE02C0C5
:1007E00088E590E0B7010E94A504CB1408F48DC001
:1007F000CA94D12C8FEFC81AD80AC80CD91CD601BC
:100800008E916D01B70190E00E94A5048C149D04A7
:10081000B1F758CF61917191072E000C880B990B9D
:1008200093CFD52CE894D4F82AE030E0853739F11D
:10083000F52DF97FDF2E8037A9F058F48835A9F01F
:100840008F36D9F0F701868197812F96E2E10C94DB
:100850004F058837B9F7D4FE02C06894D2F820E17A
:1008600030E00DC06894D4F8F6CF54FE03C02F2FAB
:100870002660D22E20E132E002C028E030E0F8010C
:10088000D7FE15C041915191619171914C875D875F
:100890006E877F878F01A4016C857D858E859F85FE
:1008A0000E94D504C82EC818E894D7F863CF819168
:1008B0009191AC0170E060E0E9CF52FC02C0A394DA
:1008C00075CFA394A39472CF852D867809F46ECF4B
:1008D000F6CFB70180E290E00E94A504A394A4148F
:1008E000C0F3312C70CF342C3A18A41408F46BCF19
:1008F000F8CF852D867809F478CF8BE251FE80E21F
:1009000057FC8DE2B70190E06ECFB70180E390E035
:100910000E94A504BA9469CF8FEF9FEF96CFFC0198
:100920000590615070400110D8F7809590958E0F1A
:100930009F1F0895FC016150704001900110D8F78D
:10094000809590958E0F9F1F08950F931F93CF93BF
:10095000DF93182F092FEB018B8181FD09C01FEF59
:100960000FEF812F902FDF91CF911F910F9108955D
:1009700082FF14C02E813F818C819D812817390709
:100980003CF4E881F981CF01019699838883108333
:100990008E819F8101969F838E83E3CFE885F985C1
:1009A000812F0995892BA1F3DACFFA01AA272830E4
:1009B00051F1203181F1E8946F936E7F6E5F7F4F2C
:1009C0008F4F9F4FAF4FB1E03ED0B4E03CD0670FA8
:1009D000781F891F9A1FA11D680F791F8A1F911DFB
:1009E000A11D6A0F711D811D911DA11D20D009F44B
:1009F00068943F912AE0269F11243019305D31938D
:100A0000DEF6CF010895462F4770405D4193B3E075
:100A10000FD0C9F7F6CF462F4F70405D4A3318F01C
:100A2000495D31FD4052419302D0A9F7EACFB4E0CD
:100A3000A6959795879577956795BA95C9F7009785
:100A40006105710508959B01AC010A2E0694579526
:100A5000479537952795BA95C9F7620F731F841F7D
:100A6000951FA01D08952F923F924F925F926F9213
:100A70007F928F929F92AF92BF92CF92DF92EF922E
:100A8000FF920F931F93CF93DF93CDB7DEB7CA1BAF
:100A9000DB0B0FB6F894DEBF0FBECDBF09942A88DA
:100AA000398848885F846E847D848C849B84AA8482
:100AB000B984C884DF80EE80FD800C811B81AA810F
:100AC000B981CE0FD11D0FB6F894DEBF0FBECDBFDA
:080AD000ED010895F894FFCF39
:100AD8000A200A200D207C2A7C2A7C2A7C2A7C2A4F
:100AE8007C2A7C2A7C2A7C20496E74657272757017
:100AF8007420776173207472696767657265642012
:100B08007C2A7C2A7C2A7C2A7C2A7C2A7C2A7C2AAD
:100B18007C000A200D204C61737420436861723A8E
:100B280020000A200D204C61737420436861723ADA
:100B38002020002564002C0020524742203D200040
:100B480027000A200D207C2A7C2A7C2A7C2A7C2AE1
:100B58007C2A7C2A7C2A7C2A7C2A7C20496E746523
:100B6800727275707420456E64207C2A7C2A7C2AF7
:100B78007C2A7C2A7C2A7C2A7C2A7C2A7C2A7C2A3D
:100B88007C000A20000A200D2057726F6E672049EA
:100B98006E70757420506C6561736520656E746540
:100BA8007220616761696E21200A200D000A200DFC
:100BB80020506C6561736520696E707574206120C2
:100BC8005468652066697273742076616C7565284F
:100BD800496E74656765722920666F7220000A2065
:100BE8000D20506C6561736520696E7075742061A5
:100BF80020546865205365636F6E642076616C7558
:100C08006528496E74656765722920666F722000D1
:100C18000A200D20506C6561736520696E707574CB
:100C28002061205468652054686972642076616C7C
:100C3800756528496E74656765722920666F72202C
:100C48000052454400475245454E00424C55450028
:00000001FF
