:100000000C9434000C9449000C9449000C94490061
:100010000C9449000C9449000C9449000C9449003C
:100020000C9449000C9449000C9449000C9449002C
:100030000C9449000C9449000C9449000C9449001C
:100040000C9449000C9449000C9449000C9449000C
:100050000C9449000C9449000C9449000C944900FC
:100060000C9449000C94490011241FBECFEFD4E03A
:10007000DEBFCDBF11E0A0E0B1E0E2EEFEE002C0E5
:1000800005900D92A831B107D9F70E9413010C9485
:100090006F070C9400009091C00095FFFCCF8093F7
:1000A000C60008951F93CF93DF93EC0110E0FE018B
:1000B000E10FF11D8081811104C0DF91CF911F916B
:1000C00008950E944B001F5FF2CF8F929F92AF92D4
:1000D000BF92CF92DF92EF92FF920F931F93CF9335
:1000E000DF93CDB7DEB7A4970FB6F894DEBF0FBE8F
:1000F000CDBF4B015C0169A39AA28BA3BCA269A1ED
:100100007AA18BA19CA10E943F036B01CB01770FC9
:10011000AA0BBB0B89A39AA3ABA3BCA3BC01CD01C3
:100120000E9477039B01AC0189A29AA2ABA2BCA258
:1001300069A17AA18BA19CA10E945B0220E030E022
:100140004AE754E469A37AA38BA39CA369A17AA18B
:100150008BA19CA10E942C0469A37AA38BA39CA3CE
:1001600069A17AA18BA19CA10E943F034B01DF9260
:10017000CF9280E091E09F938F937E0191E1E90E11
:10018000F11CFF92EF920E949904C40197FE04C0F3
:1001900088279927881999099F938F9380E091E088
:1001A0009F938F938E010F5F1F4F1F930F930E949A
:1001B0009904C7010E94520083E091E00E9452001E
:1001C000C8010E94520085E091E00E9452000FB6E3
:1001D000F894DEBF0FBECDBFA4960FB6F894DEBF75
:1001E0000FBECDBFDF91CF911F910F91FF90EF9088
:1001F000DF90CF90BF90AF909F908F900895909197
:100200007C00907F982B90937C0080917A00806492
:1002100080937A0080917A0086FDFCCF80917800EF
:1002200090917900089500D000D000D0CDB7DEB70E
:1002300080917C008F7780937C0080917C0080642B
:1002400080937C0080917A008B7F80937A008091EC
:100250007A00826080937A0080917A008160809336
:100260007A0080917A00806880937A00219A209A9F
:100270001092C5008CE08093C4008091C000826021
:100280008093C00088E18093C10086E08093C20023
:100290008091C200877F8093C200F12CE12C3898B6
:1002A0003998309BFCCF319B03C02898299AF7CF0F
:1002B0002998289A85E00E94FF006C018BE091E06C
:1002C0000E94520084E00E94FF009C0150E040E048
:1002D00029833A834B835C83CA01B9010E94750369
:1002E00020E030E44CE955E469837A838B839C8376
:1002F00069817A818B819C810E942C0420E030E00E
:1003000040E85AE369837A838B839C8369817A818D
:100310008B819C810E942C0420E030E040E251E47B
:1003200069837A838B839C8369817A818B819C81A9
:100330000E94CD024B015C01C601B0E0A0E08983C0
:100340009A83AB83BC83B601CD010E94750320E084
:1003500030E44CE955E469837A838B839C8369811B
:100360007A818B819C810E942C0420E030E040E85F
:100370005AE369837A838B839C8369817A818B8139
:100380009C810E942C0420E030E040E251E469832B
:100390007A838B839C8369817A818B819C810E9483
:1003A000CD029B01AC0189829A82AB82BC826981B9
:1003B0007A818B819C810E945B0220E030E040EAE0
:1003C00050E469837A838B839C8369817A818B81F2
:1003D0009C810E945C029B01AC019D819983AE814E
:1003E000AA831B830C8369817A818B819C810E9403
:1003F0005C026D837E83182F092FB4EFEB16B1E0FA
:10040000FB0609F041C089E091E00E94520020E023
:1004100030E04AEF53E48D8189839E819A831B8368
:100420000C8369817A818B819C810E94CD028B0132
:100430008E839D8320E030E040E85FE369831A8388
:100440008B839C8369817A818B819C810E94C80205
:1004500087FF1EC020E030E040E85FEB69817A81D1
:100460008B819C810E942704181694F489E091E006
:100470000E9452008DE091E00E9452001D821E8277
:1004800010E000E0F12CE12C4FEFE41AF40A0BCF5E
:1004900009831A832E812B833D813C8369817A8174
:1004A0008B819C810E94650089E091E00E9452004E
:1004B00084E191E0E1CF5058BB27AA270E94730244
:1004C0000C94ED030E94DF0338F00E94E60320F055
:1004D00039F49F3F19F426F40C94DC030EF4E095F4
:1004E000E7FB0C94D603E92F0E94FE0358F3BA17DA
:1004F000620773078407950720F079F4A6F50C943A
:1005000020040EF4E0950B2EBA2FA02D0B01B9019B
:1005100090010C01CA01A0011124FF27591B99F079
:10052000593F50F4503E68F11A16F040A22F232F85
:10053000342F4427585FF3CF469537952795A795D5
:10054000F0405395C9F77EF41F16BA0B620B730B7C
:10055000840BBAF09150A1F0FF0FBB1F661F771FED
:10056000881FC2F70EC0BA0F621F731F841F48F4A2
:10057000879577956795B795F7959E3F08F0B0CF2B
:100580009395880F08F09927EE0F97958795089512
:100590000E94B20308F481E008950E94E1020C94E5
:1005A000ED030E94E60358F00E94DF0340F029F4B7
:1005B0005F3F29F00C94D60351110C9421040C9444
:1005C000DC030E94FE0368F39923B1F3552391F3F2
:1005D000951B550BBB27AA2762177307840738F0B2
:1005E0009F5F5F4F220F331F441FAA1FA9F335D00F
:1005F0000E2E3AF0E0E832D091505040E695001CC3
:10060000CAF72BD0FE2F29D0660F771F881FBB1F7C
:10061000261737074807AB07B0E809F0BB0B802D5A
:10062000BF01FF2793585F4F3AF09E3F510578F086
:100630000C94D6030C9421045F3FE4F3983ED4F36A
:10064000869577956795B795F7959F5FC9F7880F5A
:10065000911D9695879597F90895E1E0660F771FAC
:10066000881FBB1F621773078407BA0720F0621B3D
:10067000730B840BBA0BEE1F88F7E09508950E9468
:1006800046036894B1110C94210408950E94060455
:1006900088F09F5798F0B92F9927B751B0F0E1F043
:1006A000660F771F881F991F1AF0BA95C9F714C0F3
:1006B000B13091F00E942004B1E008950C94200420
:1006C000672F782F8827B85F39F0B93FCCF386952C
:1006D00077956795B395D9F73EF490958095709589
:1006E00061957F4F8F4F9F4F0895E89409C097FB06
:1006F0003EF490958095709561957F4F8F4F9F4FF9
:100700009923A9F0F92F96E9BB279395F69587953C
:1007100077956795B795F111F8CFFAF4BB0F11F4FF
:1007200060FF1BC06F5F7F4F8F4F9F4F16C08823A6
:1007300011F096E911C0772321F09EE8872F762FDC
:1007400005C0662371F096E8862F70E060E02AF01D
:100750009A95660F771F881FDAF7880F9695879509
:1007600097F90895990F0008550FAA0BE0E8FEEFDE
:1007700016161706E807F907C0F012161306E40765
:10078000F50798F0621B730B840B950B39F40A265E
:1007900061F0232B242B252B21F408950A2609F43C
:1007A000A140A6958FEF811D811D089597F99F6740
:1007B00080E870E060E008959FEF80EC08950024E9
:1007C0000A941616170618060906089500240A94B6
:1007D00012161306140605060895092E0394000C3C
:1007E00011F4882352F0BB0F40F4BF2B11F460FFCB
:1007F00004C06F5F7F4F8F4F9F4F089557FD9058F4
:10080000440F551F59F05F3F71F04795880F97FBD4
:10081000991F61F09F3F79F087950895121613068E
:100820001406551FF2CF4695F1DF08C016161706BD
:100830001806991FF1CF86957105610508940895F2
:10084000E894BB2766277727CB0197F908950E9484
:10085000B20308F48FEF08950E943F040C94ED0357
:100860000E94DF0338F00E94E60320F0952311F088
:100870000C94D6030C94DC0311240C9421040E94E4
:10088000FE0370F3959FC1F3950F50E0551F629FD3
:10089000F001729FBB27F00DB11D639FAA27F00DD9
:1008A000B11DAA1F649F6627B00DA11D661F829F00
:1008B0002227B00DA11D621F739FB00DA11D621FE5
:1008C000839FA00D611D221F749F3327A00D611D02
:1008D000231F849F600D211D822F762F6A2F1124E4
:1008E0009F5750409AF0F1F088234AF0EE0FFF1F17
:1008F000BB1F661F771F881F91505040A9F79E3F6E
:10090000510580F00C94D6030C9421045F3FE4F36E
:10091000983ED4F3869577956795B795F795E795C3
:100920009F5FC1F7FE2B880F911D9695879597F9CC
:100930000895AEE0B0E0EFE9F4E00C9446070D89CD
:100940001E8986E08C831A8309838FEF9FE79E833D
:100950008D83AE01475E5F4F6F89788DCE01019622
:100960000E94BC042F813885020F131FF8011082EA
:100970002E96E4E00C946207AFE0B0E0E2ECF4E025
:100980000C9438077C013B018A01DC0117961C920C
:100990001E92169713968C9181FFC3C19AE0292E5F
:1009A000FE0131964F01D70113969C91F30193FDFF
:1009B000859193FF81913F01882309F448C18532D5
:1009C00039F493FD859193FF81913F01853229F49C
:1009D000B70190E00E94AA06E6CFB12C412C512C21
:1009E000BFE1B51538F08B3209F188F4803201F19E
:1009F000833221F157FC3AC020ED280F2A3040F510
:100A000056FE1FC0B29C200D1124B22E06C08D329E
:100A100091F0803379F7689450F8F30193FD859154
:100A200093FF81913F018111DBCF20C0689451F881
:100A3000689452F8F2CF689453F8EFCF689454F862
:100A4000ECCF429C200D1124422E689455F8E5CF3E
:100A50008E3229F456FCFBC0689456F8DECF8C36F3
:100A600019F4689457F8D9CF8836B9F2982F9F7D3A
:100A700095549330C0F08336A1F18337C1F18335AB
:100A800009F05BC0D801CD90DD908D016B2D70E039
:100A900056FC02C06FEF7FEFC6010E9494065C0116
:100AA000689457F80AC00C5F1F4FEFE3E983AA244C
:100AB000A394B12C6401E89457F853FC04C04A1481
:100AC0001B0409F018F5342CA114B10431F53320BE
:100AD00009F469CFB70180E290E00E94AA063A9437
:100AE000F6CFD8018C9189830E5F1F4FE0CFF801BC
:100AF000C190D1908F016B2D70E056FC02C06FEF5A
:100B00007FEFC6010E949F065C01D5CFB70180E24E
:100B100090E00E94AA064A94D2CFF60157FC859134
:100B200057FE81916F01B70190E00E94AA06311033
:100B30003A94B1E0AB1AB108C7CF843619F08936C0
:100B400009F074C0F80157FE6AC0619171918191FA
:100B500091918F01E52DEF76DE2E97FF09C09095DC
:100B60008095709561957F4F8F4F9F4F6894D7F810
:100B70002AE030E0A4010E94DA06C82EC818AC2C86
:100B80005D2CD6FE0CC0E89450F8CB1440F4D4FE93
:100B900005C0D2FC03C05D2D5E7E552EAB2C54FEED
:100BA00098C0FE01EC0DF11D8081803309F08AC0F0
:100BB000652D697E562E752D7870372E53FC98C0A2
:100BC00050FE92C0BC2CA41418F44C0CB42CBA18CF
:100BD00054FE94C0B70180E390E00E94AA0652FE42
:100BE00009C088E790E051FE02C088E590E0B701B7
:100BF0000E94AA06CB1408F48DC0CA94D12C8FEFA2
:100C0000C81AD80AC80CD91CD6018E916D01B7013B
:100C100090E00E94AA068C149D04B1F758CF619110
:100C20007191072E000C880B990B93CFD52CE8946B
:100C3000D4F82AE030E0853739F1F52DF97FDF2E41
:100C40008037A9F058F48835A9F08F36D9F0F7012C
:100C5000868197812F96E2E10C9454078837B9F783
:100C6000D4FE02C06894D2F820E130E00DC0689450
:100C7000D4F8F6CF54FE03C02F2F2660D22E20E1E9
:100C800032E002C028E030E0F801D7FE15C0419103
:100C90005191619171914C875D876E877F878F013C
:100CA000A4016C857D858E859F850E94DA06C82EFD
:100CB000C818E894D7F863CF81919191AC0170E0A6
:100CC00060E0E9CF52FC02C0A39475CFA394A39433
:100CD00072CF852D867809F46ECFF6CFB70180E20A
:100CE00090E00E94AA06A394A414C0F3312C70CF04
:100CF000342C3A18A41408F46BCFF8CF852D8678DD
:100D000009F478CF8BE251FE80E257FC8DE2B70107
:100D100090E06ECFB70180E390E00E94AA06BA94FB
:100D200069CF8FEF9FEF96CFFC0105906150704027
:100D30000110D8F7809590958E0F9F1F0895FC01A4
:100D40006150704001900110D8F7809590958E0FFA
:100D50009F1F08950F931F93CF93DF93182F092F91
:100D6000EB018B8181FD09C01FEF0FEF812F902FC9
:100D7000DF91CF911F910F91089582FF14C02E81B2
:100D80003F818C819D81281739073CF4E881F981E6
:100D9000CF0101969983888310838E819F8101966C
:100DA0009F838E83E3CFE885F985812F0995892B71
:100DB000A1F3DACFFA01AA27283051F1203181F1CD
:100DC000E8946F936E7F6E5F7F4F8F4F9F4FAF4F53
:100DD000B1E03ED0B4E03CD0670F781F891F9A1F66
:100DE000A11D680F791F8A1F911DA11D6A0F711D1A
:100DF000811D911DA11D20D009F468943F912AE026
:100E0000269F11243019305D3193DEF6CF0108950D
:100E1000462F4770405D4193B3E00FD0C9F7F6CF3E
:100E2000462F4F70405D4A3318F0495D31FD405206
:100E3000419302D0A9F7EACFB4E0A695979587959C
:100E400077956795BA95C9F700976105710508957B
:100E50009B01AC010A2E0694579547953795279527
:100E6000BA95C9F7620F731F841F951FA01D0895BF
:100E70002F923F924F925F926F927F928F929F92AA
:100E8000AF92BF92CF92DF92EF92FF920F931F9398
:100E9000CF93DF93CDB7DEB7CA1BDB0B0FB6F89449
:100EA000DEBF0FBECDBF09942A88398848885F8489
:100EB0006E847D848C849B84AA84B984C884DF80FA
:100EC000EE80FD800C811B81AA81B981CE0FD11DDE
:100ED0000FB6F894DEBF0FBECDBFED010895F894B4
:020EE000FFCF42
:100EE2002564002E00202020000A200D004E4F44D1
:080EF20041544100454E44004B
:00000001FF
